{
  "_format": "hh-sol-artifact-1",
  "contractName": "EscrowRegistry",
  "sourceName": "contracts/EscrowRegistry.sol",
  "abi": [
    {
      "inputs": [],
      "stateMutability": "nonpayable",
      "type": "constructor"
    },
    {
      "inputs": [],
      "name": "AccessControlBadConfirmation",
      "type": "error"
    },
    {
      "inputs": [
        {
          "internalType": "address",
          "name": "account",
          "type": "address"
        },
        {
          "internalType": "bytes32",
          "name": "neededRole",
          "type": "bytes32"
        }
      ],
      "name": "AccessControlUnauthorizedAccount",
      "type": "error"
    },
    {
      "inputs": [
        {
          "internalType": "address",
          "name": "target",
          "type": "address"
        }
      ],
      "name": "AddressEmptyCode",
      "type": "error"
    },
    {
      "inputs": [
        {
          "internalType": "address",
          "name": "implementation",
          "type": "address"
        }
      ],
      "name": "ERC1967InvalidImplementation",
      "type": "error"
    },
    {
      "inputs": [],
      "name": "ERC1967NonPayable",
      "type": "error"
    },
    {
      "inputs": [],
      "name": "FailedCall",
      "type": "error"
    },
    {
      "inputs": [],
      "name": "InvalidInitialization",
      "type": "error"
    },
    {
      "inputs": [],
      "name": "NotInitializing",
      "type": "error"
    },
    {
      "inputs": [],
      "name": "UUPSUnauthorizedCallContext",
      "type": "error"
    },
    {
      "inputs": [
        {
          "internalType": "bytes32",
          "name": "slot",
          "type": "bytes32"
        }
      ],
      "name": "UUPSUnsupportedProxiableUUID",
      "type": "error"
    },
    {
      "anonymous": false,
      "inputs": [
        {
          "indexed": true,
          "internalType": "uint256",
          "name": "escrowId",
          "type": "uint256"
        },
        {
          "indexed": true,
          "internalType": "address",
          "name": "approver",
          "type": "address"
        },
        {
          "indexed": false,
          "internalType": "uint256",
          "name": "currentApprovals",
          "type": "uint256"
        },
        {
          "indexed": false,
          "internalType": "uint256",
          "name": "requiredApprovals",
          "type": "uint256"
        }
      ],
      "name": "ApprovalGranted",
      "type": "event"
    },
    {
      "anonymous": false,
      "inputs": [
        {
          "indexed": true,
          "internalType": "uint256",
          "name": "escrowId",
          "type": "uint256"
        },
        {
          "indexed": true,
          "internalType": "address",
          "name": "cancelledBy",
          "type": "address"
        },
        {
          "indexed": false,
          "internalType": "string",
          "name": "reason",
          "type": "string"
        }
      ],
      "name": "EscrowCancelled",
      "type": "event"
    },
    {
      "anonymous": false,
      "inputs": [
        {
          "indexed": true,
          "internalType": "uint256",
          "name": "escrowId",
          "type": "uint256"
        },
        {
          "indexed": true,
          "internalType": "address",
          "name": "vaultAddress",
          "type": "address"
        },
        {
          "indexed": true,
          "internalType": "address",
          "name": "requester",
          "type": "address"
        },
        {
          "indexed": false,
          "internalType": "address",
          "name": "recipient",
          "type": "address"
        },
        {
          "indexed": false,
          "internalType": "address",
          "name": "tokenAddress",
          "type": "address"
        },
        {
          "indexed": false,
          "internalType": "uint256",
          "name": "amount",
          "type": "uint256"
        },
        {
          "indexed": false,
          "internalType": "enum EscrowRegistry.EscrowType",
          "name": "escrowType",
          "type": "uint8"
        }
      ],
      "name": "EscrowCreated",
      "type": "event"
    },
    {
      "anonymous": false,
      "inputs": [
        {
          "indexed": true,
          "internalType": "uint256",
          "name": "escrowId",
          "type": "uint256"
        },
        {
          "indexed": true,
          "internalType": "address",
          "name": "recipient",
          "type": "address"
        },
        {
          "indexed": false,
          "internalType": "address",
          "name": "tokenAddress",
          "type": "address"
        },
        {
          "indexed": false,
          "internalType": "uint256",
          "name": "amount",
          "type": "uint256"
        }
      ],
      "name": "EscrowReleased",
      "type": "event"
    },
    {
      "anonymous": false,
      "inputs": [
        {
          "indexed": true,
          "internalType": "uint256",
          "name": "escrowId",
          "type": "uint256"
        },
        {
          "indexed": false,
          "internalType": "enum EscrowRegistry.EscrowState",
          "name": "previousState",
          "type": "uint8"
        },
        {
          "indexed": false,
          "internalType": "enum EscrowRegistry.EscrowState",
          "name": "newState",
          "type": "uint8"
        },
        {
          "indexed": true,
          "internalType": "address",
          "name": "changedBy",
          "type": "address"
        }
      ],
      "name": "EscrowStateChanged",
      "type": "event"
    },
    {
      "anonymous": false,
      "inputs": [
        {
          "indexed": false,
          "internalType": "uint64",
          "name": "version",
          "type": "uint64"
        }
      ],
      "name": "Initialized",
      "type": "event"
    },
    {
      "anonymous": false,
      "inputs": [
        {
          "indexed": true,
          "internalType": "bytes32",
          "name": "role",
          "type": "bytes32"
        },
        {
          "indexed": true,
          "internalType": "bytes32",
          "name": "previousAdminRole",
          "type": "bytes32"
        },
        {
          "indexed": true,
          "internalType": "bytes32",
          "name": "newAdminRole",
          "type": "bytes32"
        }
      ],
      "name": "RoleAdminChanged",
      "type": "event"
    },
    {
      "anonymous": false,
      "inputs": [
        {
          "indexed": true,
          "internalType": "bytes32",
          "name": "role",
          "type": "bytes32"
        },
        {
          "indexed": true,
          "internalType": "address",
          "name": "account",
          "type": "address"
        },
        {
          "indexed": true,
          "internalType": "address",
          "name": "sender",
          "type": "address"
        }
      ],
      "name": "RoleGranted",
      "type": "event"
    },
    {
      "anonymous": false,
      "inputs": [
        {
          "indexed": true,
          "internalType": "bytes32",
          "name": "role",
          "type": "bytes32"
        },
        {
          "indexed": true,
          "internalType": "address",
          "name": "account",
          "type": "address"
        },
        {
          "indexed": true,
          "internalType": "address",
          "name": "sender",
          "type": "address"
        }
      ],
      "name": "RoleRevoked",
      "type": "event"
    },
    {
      "anonymous": false,
      "inputs": [
        {
          "indexed": true,
          "internalType": "address",
          "name": "implementation",
          "type": "address"
        }
      ],
      "name": "Upgraded",
      "type": "event"
    },
    {
      "inputs": [],
      "name": "ADMIN_ROLE",
      "outputs": [
        {
          "internalType": "bytes32",
          "name": "",
          "type": "bytes32"
        }
      ],
      "stateMutability": "view",
      "type": "function"
    },
    {
      "inputs": [],
      "name": "DEFAULT_ADMIN_ROLE",
      "outputs": [
        {
          "internalType": "bytes32",
          "name": "",
          "type": "bytes32"
        }
      ],
      "stateMutability": "view",
      "type": "function"
    },
    {
      "inputs": [],
      "name": "OPERATOR_ROLE",
      "outputs": [
        {
          "internalType": "bytes32",
          "name": "",
          "type": "bytes32"
        }
      ],
      "stateMutability": "view",
      "type": "function"
    },
    {
      "inputs": [],
      "name": "UPGRADE_INTERFACE_VERSION",
      "outputs": [
        {
          "internalType": "string",
          "name": "",
          "type": "string"
        }
      ],
      "stateMutability": "view",
      "type": "function"
    },
    {
      "inputs": [
        {
          "internalType": "uint256",
          "name": "escrowId",
          "type": "uint256"
        }
      ],
      "name": "approveEscrow",
      "outputs": [],
      "stateMutability": "nonpayable",
      "type": "function"
    },
    {
      "inputs": [
        {
          "internalType": "uint256",
          "name": "escrowId",
          "type": "uint256"
        },
        {
          "internalType": "string",
          "name": "reason",
          "type": "string"
        }
      ],
      "name": "cancelEscrow",
      "outputs": [],
      "stateMutability": "nonpayable",
      "type": "function"
    },
    {
      "inputs": [
        {
          "internalType": "uint256",
          "name": "escrowId",
          "type": "uint256"
        },
        {
          "internalType": "enum EscrowRegistry.EscrowState",
          "name": "newState",
          "type": "uint8"
        }
      ],
      "name": "changeEscrowState",
      "outputs": [],
      "stateMutability": "nonpayable",
      "type": "function"
    },
    {
      "inputs": [
        {
          "components": [
            {
              "internalType": "address",
              "name": "vaultAddress",
              "type": "address"
            },
            {
              "internalType": "address",
              "name": "recipient",
              "type": "address"
            },
            {
              "internalType": "address",
              "name": "tokenAddress",
              "type": "address"
            },
            {
              "internalType": "uint256",
              "name": "amount",
              "type": "uint256"
            },
            {
              "internalType": "enum EscrowRegistry.EscrowType",
              "name": "escrowType",
              "type": "uint8"
            },
            {
              "internalType": "enum EscrowRegistry.ApprovalType",
              "name": "approvalType",
              "type": "uint8"
            },
            {
              "internalType": "string",
              "name": "title",
              "type": "string"
            },
            {
              "internalType": "string",
              "name": "description",
              "type": "string"
            },
            {
              "internalType": "uint256",
              "name": "scheduledReleaseAt",
              "type": "uint256"
            },
            {
              "internalType": "uint256",
              "name": "expiresAt",
              "type": "uint256"
            },
            {
              "internalType": "bytes32",
              "name": "metadataHash",
              "type": "bytes32"
            }
          ],
          "internalType": "struct EscrowRegistry.CreateEscrowParams",
          "name": "params",
          "type": "tuple"
        }
      ],
      "name": "createEscrow",
      "outputs": [
        {
          "internalType": "uint256",
          "name": "escrowId",
          "type": "uint256"
        }
      ],
      "stateMutability": "nonpayable",
      "type": "function"
    },
    {
      "inputs": [
        {
          "internalType": "uint256",
          "name": "escrowId",
          "type": "uint256"
        }
      ],
      "name": "getApprovalState",
      "outputs": [
        {
          "internalType": "uint256",
          "name": "requiredApprovals",
          "type": "uint256"
        },
        {
          "internalType": "uint256",
          "name": "currentApprovals",
          "type": "uint256"
        },
        {
          "internalType": "address[]",
          "name": "approvers",
          "type": "address[]"
        }
      ],
      "stateMutability": "view",
      "type": "function"
    },
    {
      "inputs": [
        {
          "internalType": "uint256",
          "name": "escrowId",
          "type": "uint256"
        }
      ],
      "name": "getEscrow",
      "outputs": [
        {
          "components": [
            {
              "internalType": "uint256",
              "name": "id",
              "type": "uint256"
            },
            {
              "internalType": "address",
              "name": "vaultAddress",
              "type": "address"
            },
            {
              "internalType": "address",
              "name": "requester",
              "type": "address"
            },
            {
              "internalType": "address",
              "name": "recipient",
              "type": "address"
            },
            {
              "internalType": "address",
              "name": "tokenAddress",
              "type": "address"
            },
            {
              "internalType": "uint256",
              "name": "amount",
              "type": "uint256"
            },
            {
              "internalType": "enum EscrowRegistry.EscrowType",
              "name": "escrowType",
              "type": "uint8"
            },
            {
              "internalType": "enum EscrowRegistry.ApprovalType",
              "name": "approvalType",
              "type": "uint8"
            },
            {
              "internalType": "enum EscrowRegistry.EscrowState",
              "name": "state",
              "type": "uint8"
            },
            {
              "internalType": "string",
              "name": "title",
              "type": "string"
            },
            {
              "internalType": "string",
              "name": "description",
              "type": "string"
            },
            {
              "internalType": "uint256",
              "name": "createdAt",
              "type": "uint256"
            },
            {
              "internalType": "uint256",
              "name": "updatedAt",
              "type": "uint256"
            },
            {
              "internalType": "uint256",
              "name": "scheduledReleaseAt",
              "type": "uint256"
            },
            {
              "internalType": "uint256",
              "name": "expiresAt",
              "type": "uint256"
            },
            {
              "internalType": "bytes32",
              "name": "metadataHash",
              "type": "bytes32"
            }
          ],
          "internalType": "struct EscrowRegistry.Escrow",
          "name": "",
          "type": "tuple"
        }
      ],
      "stateMutability": "view",
      "type": "function"
    },
    {
      "inputs": [],
      "name": "getEscrowCounter",
      "outputs": [
        {
          "internalType": "uint256",
          "name": "",
          "type": "uint256"
        }
      ],
      "stateMutability": "view",
      "type": "function"
    },
    {
      "inputs": [
        {
          "internalType": "address",
          "name": "requester",
          "type": "address"
        }
      ],
      "name": "getRequesterEscrows",
      "outputs": [
        {
          "internalType": "uint256[]",
          "name": "",
          "type": "uint256[]"
        }
      ],
      "stateMutability": "view",
      "type": "function"
    },
    {
      "inputs": [
        {
          "internalType": "bytes32",
          "name": "role",
          "type": "bytes32"
        }
      ],
      "name": "getRoleAdmin",
      "outputs": [
        {
          "internalType": "bytes32",
          "name": "",
          "type": "bytes32"
        }
      ],
      "stateMutability": "view",
      "type": "function"
    },
    {
      "inputs": [
        {
          "internalType": "address",
          "name": "vaultAddress",
          "type": "address"
        }
      ],
      "name": "getVaultEscrows",
      "outputs": [
        {
          "internalType": "uint256[]",
          "name": "",
          "type": "uint256[]"
        }
      ],
      "stateMutability": "view",
      "type": "function"
    },
    {
      "inputs": [
        {
          "internalType": "bytes32",
          "name": "role",
          "type": "bytes32"
        },
        {
          "internalType": "address",
          "name": "account",
          "type": "address"
        }
      ],
      "name": "grantRole",
      "outputs": [],
      "stateMutability": "nonpayable",
      "type": "function"
    },
    {
      "inputs": [
        {
          "internalType": "bytes32",
          "name": "role",
          "type": "bytes32"
        },
        {
          "internalType": "address",
          "name": "account",
          "type": "address"
        }
      ],
      "name": "hasRole",
      "outputs": [
        {
          "internalType": "bool",
          "name": "",
          "type": "bool"
        }
      ],
      "stateMutability": "view",
      "type": "function"
    },
    {
      "inputs": [
        {
          "internalType": "address",
          "name": "admin",
          "type": "address"
        }
      ],
      "name": "initialize",
      "outputs": [],
      "stateMutability": "nonpayable",
      "type": "function"
    },
    {
      "inputs": [
        {
          "internalType": "uint256",
          "name": "escrowId",
          "type": "uint256"
        },
        {
          "internalType": "uint256",
          "name": "requiredApprovals",
          "type": "uint256"
        },
        {
          "internalType": "uint256",
          "name": "approvalDeadline",
          "type": "uint256"
        }
      ],
      "name": "initializeApprovalState",
      "outputs": [],
      "stateMutability": "nonpayable",
      "type": "function"
    },
    {
      "inputs": [],
      "name": "proxiableUUID",
      "outputs": [
        {
          "internalType": "bytes32",
          "name": "",
          "type": "bytes32"
        }
      ],
      "stateMutability": "view",
      "type": "function"
    },
    {
      "inputs": [
        {
          "internalType": "bytes32",
          "name": "role",
          "type": "bytes32"
        },
        {
          "internalType": "address",
          "name": "callerConfirmation",
          "type": "address"
        }
      ],
      "name": "renounceRole",
      "outputs": [],
      "stateMutability": "nonpayable",
      "type": "function"
    },
    {
      "inputs": [
        {
          "internalType": "bytes32",
          "name": "role",
          "type": "bytes32"
        },
        {
          "internalType": "address",
          "name": "account",
          "type": "address"
        }
      ],
      "name": "revokeRole",
      "outputs": [],
      "stateMutability": "nonpayable",
      "type": "function"
    },
    {
      "inputs": [
        {
          "internalType": "bytes4",
          "name": "interfaceId",
          "type": "bytes4"
        }
      ],
      "name": "supportsInterface",
      "outputs": [
        {
          "internalType": "bool",
          "name": "",
          "type": "bool"
        }
      ],
      "stateMutability": "view",
      "type": "function"
    },
    {
      "inputs": [
        {
          "internalType": "address",
          "name": "newImplementation",
          "type": "address"
        },
        {
          "internalType": "bytes",
          "name": "data",
          "type": "bytes"
        }
      ],
      "name": "upgradeToAndCall",
      "outputs": [],
      "stateMutability": "payable",
      "type": "function"
    }
  ],
  "bytecode": "0x60a06040523060805234801561001457600080fd5b5061001d610022565b6100d4565b7ff0c57e16840df040f15088dc2f81fe391c3923bec73e23a9662efc9c229c6a00805468010000000000000000900460ff16156100725760405163f92ee8a960e01b815260040160405180910390fd5b80546001600160401b03908116146100d15780546001600160401b0319166001600160401b0390811782556040519081527fc7f505b2f371ae2175ee4913f4499e1f2633a7b5936321eed1cdaeb6115181d29060200160405180910390a15b50565b608051612435620000fe600039600081816117500152818161177901526118cc01526124356000f3fe6080604052600436106101405760003560e01c80637720cdd8116100b6578063cbc500f91161006f578063cbc500f9146103a5578063d2af2bcb146103c5578063d547741f146103e5578063f056b7a114610405578063f5b541a614610425578063f6d96d991461045957600080fd5b80637720cdd8146102b65780637d19e596146102e557806391d1485414610312578063a217fddf14610332578063ad3cb1cc14610347578063c4d66de81461038557600080fd5b806336568abe1161010857806336568abe146102175780634be7b7fd146102375780634f1ef2861461024c57806352d1902d1461025f57806373557ba41461027457806375b238fc1461029457600080fd5b806301ffc9a71461014557806303fce7ef1461017a5780631b63f5a31461019c578063248a9ca3146101c95780632f2ff15d146101f7575b600080fd5b34801561015157600080fd5b50610165610160366004611b8a565b610479565b60405190151581526020015b60405180910390f35b34801561018657600080fd5b5061019a610195366004611bb4565b6104b0565b005b3480156101a857600080fd5b506101bc6101b7366004611be9565b610729565b6040516101719190611c04565b3480156101d557600080fd5b506101e96101e4366004611bb4565b610795565b604051908152602001610171565b34801561020357600080fd5b5061019a610212366004611c48565b6107b7565b34801561022357600080fd5b5061019a610232366004611c48565b6107d9565b34801561024357600080fd5b506000546101e9565b61019a61025a366004611c8a565b61080c565b34801561026b57600080fd5b506101e961082b565b34801561028057600080fd5b506101bc61028f366004611be9565b610848565b3480156102a057600080fd5b506101e96000805160206123e083398151915281565b3480156102c257600080fd5b506102d66102d1366004611bb4565b6108b2565b60405161017193929190611d4c565b3480156102f157600080fd5b50610305610300366004611bb4565b61093c565b6040516101719190611e46565b34801561031e57600080fd5b5061016561032d366004611c48565b610c59565b34801561033e57600080fd5b506101e9600081565b34801561035357600080fd5b50610378604051806040016040528060058152602001640352e302e360dc1b81525081565b6040516101719190611f78565b34801561039157600080fd5b5061019a6103a0366004611be9565b610c91565b3480156103b157600080fd5b506101e96103c0366004611f8b565b610dbe565b3480156103d157600080fd5b5061019a6103e0366004611fc7565b61123b565b3480156103f157600080fd5b5061019a610400366004611c48565b611423565b34801561041157600080fd5b5061019a610420366004612043565b61143f565b34801561043157600080fd5b506101e97f97667070c54ef182b0f5858b034beac1b6f3089aa2d3188bb1e8929f4fa9b92981565b34801561046557600080fd5b5061019a610474366004612077565b61154c565b60006001600160e01b03198216637965db0b60e01b14806104aa57506301ffc9a760e01b6001600160e01b03198316145b92915050565b600081815260016020526040812080549091036104e85760405162461bcd60e51b81526004016104df906120a3565b60405180910390fd5b600160068281015462010000900460ff169081111561050957610509611dac565b146105565760405162461bcd60e51b815260206004820152601e60248201527f457363726f77206973206e6f7420696e2070656e64696e67207374617465000060448201526064016104df565b600082815260026020526040902060058101544211156105b85760405162461bcd60e51b815260206004820152601c60248201527f417070726f76616c20646561646c696e6520686173207061737365640000000060448201526064016104df565b33600090815260038201602052604090205460ff161561060d5760405162461bcd60e51b815260206004820152601060248201526f105b1c9958591e48185c1c1c9bdd995960821b60448201526064016104df565b33600081815260038301602090815260408220805460ff19166001908117909155600485018054918201815583529082200180546001600160a01b03191690921790915560028201805491610661836120d2565b9190505550336001600160a01b0316837fc2368232b96d4aa1f2fa8be9930def0a5aafc8f5941d9b04c16e009a9c0beca1836002015484600101546040516106b3929190918252602082015260400190565b60405180910390a380600101548160020154106107245760068201805462ff000019166202000017905542600a830155604051339084907fb8bade133a9883e5f4a13c6b8e0c78ee3f5e04b7d88f616ae06dc586d043ba519061071b906001906002906120f9565b60405180910390a35b505050565b6001600160a01b03811660009081526003602090815260409182902080548351818402810184019094528084526060939283018282801561078957602002820191906000526020600020905b815481526020019060010190808311610775575b50505050509050919050565b60009081526000805160206123c0833981519152602052604090206001015490565b6107c082610795565b6107c981611617565b6107d38383611624565b50505050565b6001600160a01b03811633146108025760405163334bd91960e11b815260040160405180910390fd5b61072482826116c9565b610814611745565b61081d826117ec565b6108278282611804565b5050565b60006108356118c1565b506000805160206123a083398151915290565b6001600160a01b03811660009081526004602090815260409182902080548351818402810184019094528084526060939283018282801561078957602002820191906000526020600020908154815260200190600101908083116107755750505050509050919050565b60008181526002602081815260408084206001810154938101546004820180548451818702810187019095528085528796606096949590949091839183018282801561092757602002820191906000526020600020905b81546001600160a01b03168152600190910190602001808311610909575b50505050509050935093509350509193909250565b6109bf6040805161020081018252600080825260208201819052918101829052606081018290526080810182905260a081018290529060c082019081526020016000815260200160008152602001606081526020016060815260200160008152602001600081526020016000815260200160008152602001600080191681525090565b60008281526001602052604081205490036109ec5760405162461bcd60e51b81526004016104df906120a3565b60008281526001602081815260409283902083516102008101855281548152928101546001600160a01b039081169284019290925260028101548216938301939093526003830154811660608301526004808401549091166080830152600583015460a0830152600683015491929160c084019160ff90911690811115610a7557610a75611dac565b6004811115610a8657610a86611dac565b81526020016006820160019054906101000a900460ff166001811115610aae57610aae611dac565b6001811115610abf57610abf611dac565b81526020016006820160029054906101000a900460ff166006811115610ae757610ae7611dac565b6006811115610af857610af8611dac565b8152602001600782018054610b0c90612114565b80601f0160208091040260200160405190810160405280929190818152602001828054610b3890612114565b8015610b855780601f10610b5a57610100808354040283529160200191610b85565b820191906000526020600020905b815481529060010190602001808311610b6857829003601f168201915b50505050508152602001600882018054610b9e90612114565b80601f0160208091040260200160405190810160405280929190818152602001828054610bca90612114565b8015610c175780601f10610bec57610100808354040283529160200191610c17565b820191906000526020600020905b815481529060010190602001808311610bfa57829003601f168201915b5050505050815260200160098201548152602001600a8201548152602001600b8201548152602001600c8201548152602001600d820154815250509050919050565b60009182526000805160206123c0833981519152602090815260408084206001600160a01b0393909316845291905290205460ff1690565b6000610c9b61190a565b805490915060ff600160401b820416159067ffffffffffffffff16600081158015610cc35750825b905060008267ffffffffffffffff166001148015610ce05750303b155b905081158015610cee575080155b15610d0c5760405163f92ee8a960e01b815260040160405180910390fd5b845467ffffffffffffffff191660011785558315610d3657845460ff60401b1916600160401b1785555b610d3e611933565b610d46611933565b610d51600087611624565b50610d6a6000805160206123e083398151915287611624565b5060016000558315610db657845460ff60401b19168555604051600181527fc7f505b2f371ae2175ee4913f4499e1f2633a7b5936321eed1cdaeb6115181d29060200160405180910390a15b505050505050565b600080610dce6020840184611be9565b6001600160a01b031603610e1c5760405162461bcd60e51b8152602060048201526015602482015274496e76616c6964207661756c74206164647265737360581b60448201526064016104df565b6000610e2e6040840160208501611be9565b6001600160a01b031603610e845760405162461bcd60e51b815260206004820152601960248201527f496e76616c696420726563697069656e7420616464726573730000000000000060448201526064016104df565b6000826060013511610ed85760405162461bcd60e51b815260206004820152601d60248201527f416d6f756e74206d7573742062652067726561746572207468616e203000000060448201526064016104df565b4282610120013511610f365760405162461bcd60e51b815260206004820152602160248201527f4578706972792074696d65206d75737420626520696e207468652066757475726044820152606560f81b60648201526084016104df565b8161012001358261010001351115610fa05760405162461bcd60e51b815260206004820152602760248201527f5363686564756c65642072656c65617365206d757374206265206265666f72656044820152662065787069727960c81b60648201526084016104df565b600080549080610faf836120d2565b909155506000818152600160209081526040909120828155919250610fd690840184611be9565b6001820180546001600160a01b03929092166001600160a01b0319928316179055600282018054909116331790556110146040840160208501611be9565b6003820180546001600160a01b0319166001600160a01b03929092169190911790556110466060840160408501611be9565b6004820180546001600160a01b0319166001600160a01b03929092169190911790556060830135600582015561108260a084016080850161214e565b60068201805460ff191660018360048111156110a0576110a0611dac565b02179055506110b560c0840160a0850161216f565b60068201805461ff0019166101008360018111156110d5576110d5611dac565b021790555060068101805462ff0000191690556110f560c0840184612190565b6007830191611105919083612226565b5061111360e0840184612190565b6008830191611123919083612226565b504260098201819055600a820155610100830135600b820155610120830135600c820155610140830135600d820155600360006111636020860186611be9565b6001600160a01b03168152602080820192909252604090810160009081208054600181810183559183528483200186905533808352600485529282208054918201815582529083902001849055906111bd90850185611be9565b6001600160a01b0316837f61c2b17982f05993063ffe85f2036f86c7aee66a00871968988b885e5845c5d46111f86040880160208901611be9565b6112086060890160408a01611be9565b606089013561121d60a08b0160808c0161214e565b60405161122d94939291906122e7565b60405180910390a450919050565b6000838152600160205260408120805490910361126a5760405162461bcd60e51b81526004016104df906120a3565b60028101546001600160a01b0316331480611291575060018101546001600160a01b031633145b806112af57506112af6000805160206123e083398151915233610c59565b6112cb5760405162461bcd60e51b81526004016104df90612313565b600460068281015462010000900460ff16908111156112ec576112ec611dac565b141580156113195750600560068281015462010000900460ff169081111561131657611316611dac565b14155b6113735760405162461bcd60e51b815260206004820152602560248201527f43616e6e6f742063616e63656c20657363726f7720696e2063757272656e7420604482015264737461746560d81b60648201526084016104df565b60068101805462ff0000198116620500001790915542600a8301556040516201000090910460ff1690339086907f5393cae99dfb45a16e8c5923f3d87120386e7f749874bfec781b0309be6630a0906113cf908890889061233b565b60405180910390a3336001600160a01b0316857fb8bade133a9883e5f4a13c6b8e0c78ee3f5e04b7d88f616ae06dc586d043ba518360056040516114149291906120f9565b60405180910390a35050505050565b61142c82610795565b61143581611617565b6107d383836116c9565b6000828152600160205260408120805490910361146e5760405162461bcd60e51b81526004016104df906120a3565b60028101546001600160a01b0316331480611495575060018101546001600160a01b031633145b806114b357506114b36000805160206123e083398151915233610c59565b6114cf5760405162461bcd60e51b81526004016104df90612313565b600681810180546201000080820460ff169386939262ff00001916919084908111156114fd576114fd611dac565b021790555042600a830155604051339085907fb8bade133a9883e5f4a13c6b8e0c78ee3f5e04b7d88f616ae06dc586d043ba519061153e90859088906120f9565b60405180910390a350505050565b6000838152600160205260408120805490910361157b5760405162461bcd60e51b81526004016104df906120a3565b60028101546001600160a01b03163314806115a2575060018101546001600160a01b031633145b806115c057506115c06000805160206123e083398151915233610c59565b6115dc5760405162461bcd60e51b81526004016104df90612313565b50600083815260026020819052604082209485556001850193909355918301829055600583015560068201805460ff19169055600790910155565b611621813361193b565b50565b60006000805160206123c083398151915261163f8484610c59565b6116bf576000848152602082815260408083206001600160a01b03871684529091529020805460ff191660011790556116753390565b6001600160a01b0316836001600160a01b0316857f2f8788117e7eff1d82e926ec794901d17c78024a50270940304540a733656f0d60405160405180910390a460019150506104aa565b60009150506104aa565b60006000805160206123c08339815191526116e48484610c59565b156116bf576000848152602082815260408083206001600160a01b0387168085529252808320805460ff1916905551339287917ff6391f5c32d9c69d2a47ea670b442974b53935d1edc7fd64eb21e047a839171b9190a460019150506104aa565b306001600160a01b037f00000000000000000000000000000000000000000000000000000000000000001614806117cc57507f00000000000000000000000000000000000000000000000000000000000000006001600160a01b03166117c06000805160206123a0833981519152546001600160a01b031690565b6001600160a01b031614155b156117ea5760405163703e46dd60e11b815260040160405180910390fd5b565b6000805160206123e083398151915261082781611617565b816001600160a01b03166352d1902d6040518163ffffffff1660e01b8152600401602060405180830381865afa92505050801561185e575060408051601f3d908101601f1916820190925261185b9181019061236a565b60015b61188657604051634c9c8ce360e01b81526001600160a01b03831660048201526024016104df565b6000805160206123a083398151915281146118b757604051632a87526960e21b8152600481018290526024016104df565b6107248383611974565b306001600160a01b037f000000000000000000000000000000000000000000000000000000000000000016146117ea5760405163703e46dd60e11b815260040160405180910390fd5b6000807ff0c57e16840df040f15088dc2f81fe391c3923bec73e23a9662efc9c229c6a006104aa565b6117ea6119ca565b6119458282610c59565b6108275760405163e2517d3f60e01b81526001600160a01b0382166004820152602481018390526044016104df565b61197d826119ef565b6040516001600160a01b038316907fbc7cd75a20ee27fd9adebab32041f755214dbc6bffa90cc0225b39da2e5c2d3b90600090a28051156119c2576107248282611a54565b610827611aca565b6119d2611ae9565b6117ea57604051631afcd79f60e31b815260040160405180910390fd5b806001600160a01b03163b600003611a2557604051634c9c8ce360e01b81526001600160a01b03821660048201526024016104df565b6000805160206123a083398151915280546001600160a01b0319166001600160a01b0392909216919091179055565b6060600080846001600160a01b031684604051611a719190612383565b600060405180830381855af49150503d8060008114611aac576040519150601f19603f3d011682016040523d82523d6000602084013e611ab1565b606091505b5091509150611ac1858383611b03565b95945050505050565b34156117ea5760405163b398979f60e01b815260040160405180910390fd5b6000611af361190a565b54600160401b900460ff16919050565b606082611b1857611b1382611b62565b611b5b565b8151158015611b2f57506001600160a01b0384163b155b15611b5857604051639996b31560e01b81526001600160a01b03851660048201526024016104df565b50805b9392505050565b805115611b7157805160208201fd5b60405163d6bda27560e01b815260040160405180910390fd5b600060208284031215611b9c57600080fd5b81356001600160e01b031981168114611b5b57600080fd5b600060208284031215611bc657600080fd5b5035919050565b80356001600160a01b0381168114611be457600080fd5b919050565b600060208284031215611bfb57600080fd5b611b5b82611bcd565b6020808252825182820181905260009190848201906040850190845b81811015611c3c57835183529284019291840191600101611c20565b50909695505050505050565b60008060408385031215611c5b57600080fd5b82359150611c6b60208401611bcd565b90509250929050565b634e487b7160e01b600052604160045260246000fd5b60008060408385031215611c9d57600080fd5b611ca683611bcd565b9150602083013567ffffffffffffffff80821115611cc357600080fd5b818501915085601f830112611cd757600080fd5b813581811115611ce957611ce9611c74565b604051601f8201601f19908116603f01168101908382118183101715611d1157611d11611c74565b81604052828152886020848701011115611d2a57600080fd5b8260208601602083013760006020848301015280955050505050509250929050565b60006060820185835260208560208501526060604085015281855180845260808601915060208701935060005b81811015611d9e5784516001600160a01b031683529383019391830191600101611d79565b509098975050505050505050565b634e487b7160e01b600052602160045260246000fd5b60058110611dd257611dd2611dac565b9052565b60028110611dd257611dd2611dac565b60078110611dd257611dd2611dac565b60005b83811015611e11578181015183820152602001611df9565b50506000910152565b60008151808452611e32816020860160208601611df6565b601f01601f19169290920160200192915050565b602081528151602082015260006020830151611e6d60408401826001600160a01b03169052565b5060408301516001600160a01b03811660608401525060608301516001600160a01b03811660808401525060808301516001600160a01b03811660a08401525060a083015160c083015260c0830151611ec960e0840182611dc2565b5060e0830151610100611ede81850183611dd6565b8401519050610120611ef284820183611de6565b808501519150506102006101408181860152611f12610220860184611e1a565b9250808601519050610160601f198685030181870152611f328483611e1a565b90870151610180878101919091528701516101a0808801919091528701516101c0808801919091528701516101e080880191909152909601519190940152509192915050565b602081526000611b5b6020830184611e1a565b600060208284031215611f9d57600080fd5b813567ffffffffffffffff811115611fb457600080fd5b82016101608185031215611b5b57600080fd5b600080600060408486031215611fdc57600080fd5b83359250602084013567ffffffffffffffff80821115611ffb57600080fd5b818601915086601f83011261200f57600080fd5b81358181111561201e57600080fd5b87602082850101111561203057600080fd5b6020830194508093505050509250925092565b6000806040838503121561205657600080fd5b8235915060208301356007811061206c57600080fd5b809150509250929050565b60008060006060848603121561208c57600080fd5b505081359360208301359350604090920135919050565b602080825260159082015274115cd8dc9bddc8191bd95cc81b9bdd08195e1a5cdd605a1b604082015260600190565b6000600182016120f257634e487b7160e01b600052601160045260246000fd5b5060010190565b604081016121078285611de6565b611b5b6020830184611de6565b600181811c9082168061212857607f821691505b60208210810361214857634e487b7160e01b600052602260045260246000fd5b50919050565b60006020828403121561216057600080fd5b813560058110611b5b57600080fd5b60006020828403121561218157600080fd5b813560028110611b5b57600080fd5b6000808335601e198436030181126121a757600080fd5b83018035915067ffffffffffffffff8211156121c257600080fd5b6020019150368190038213156121d757600080fd5b9250929050565b601f821115610724576000816000526020600020601f850160051c810160208610156122075750805b601f850160051c820191505b81811015610db657828155600101612213565b67ffffffffffffffff83111561223e5761223e611c74565b6122528361224c8354612114565b836121de565b6000601f841160018114612286576000851561226e5750838201355b600019600387901b1c1916600186901b1783556122e0565b600083815260209020601f19861690835b828110156122b75786850135825560209485019460019092019101612297565b50868210156122d45760001960f88860031b161c19848701351681555b505060018560011b0183555b5050505050565b6001600160a01b038581168252841660208201526040810183905260808101611ac16060830184611dc2565b6020808252600e908201526d139bdd08185d5d1a1bdc9a5e995960921b604082015260600190565b60208152816020820152818360408301376000818301604090810191909152601f909201601f19160101919050565b60006020828403121561237c57600080fd5b5051919050565b60008251612395818460208701611df6565b919091019291505056fe360894a13ba1a3210667c828492db98dca3e2076cc3735a920a3ca505d382bbc02dd7bc7dec4dceedda775e58dd541e08a116c6c53815c0bd028192f7b626800a49807205ce4d355092ef5a8a18f56e8913cf4a201fbe287825b095693c21775a26469706673582212206f5982eba85b7a1b552b3e5335195c2b3eec6cea1b384dd6a091c51054e8c5e064736f6c63430008180033",
  "linkReferences": {},
  "deployedLinkReferences": {}
}